{
  "abi": [
    {
      "inputs": [
        {
          "internalType": "address",
          "name": "factoryAddress",
          "type": "address"
        }
      ],
      "stateMutability": "nonpayable",
      "type": "constructor"
    },
    {
      "inputs": [],
      "name": "ExcessiveInputAmount",
      "type": "error"
    },
    {
      "inputs": [],
      "name": "InsufficientAAmount",
      "type": "error"
    },
    {
      "inputs": [],
      "name": "InsufficientBAmount",
      "type": "error"
    },
    {
      "inputs": [],
      "name": "InsufficientOutputAmount",
      "type": "error"
    },
    {
      "inputs": [],
      "name": "SafeTransferFailed",
      "type": "error"
    },
    {
      "inputs": [
        {
          "internalType": "address",
          "name": "tokenA",
          "type": "address"
        },
        {
          "internalType": "address",
          "name": "tokenB",
          "type": "address"
        },
        {
          "internalType": "uint256",
          "name": "amountADesired",
          "type": "uint256"
        },
        {
          "internalType": "uint256",
          "name": "amountBDesired",
          "type": "uint256"
        },
        {
          "internalType": "uint256",
          "name": "amountAMin",
          "type": "uint256"
        },
        {
          "internalType": "uint256",
          "name": "amountBMin",
          "type": "uint256"
        },
        {
          "internalType": "address",
          "name": "to",
          "type": "address"
        }
      ],
      "name": "addLiquidity",
      "outputs": [
        {
          "internalType": "uint256",
          "name": "amountA",
          "type": "uint256"
        },
        {
          "internalType": "uint256",
          "name": "amountB",
          "type": "uint256"
        },
        {
          "internalType": "uint256",
          "name": "liquidity",
          "type": "uint256"
        }
      ],
      "stateMutability": "nonpayable",
      "type": "function"
    },
    {
      "inputs": [
        {
          "internalType": "address",
          "name": "tokenA",
          "type": "address"
        },
        {
          "internalType": "address",
          "name": "tokenB",
          "type": "address"
        },
        {
          "internalType": "uint256",
          "name": "liquidity",
          "type": "uint256"
        },
        {
          "internalType": "uint256",
          "name": "amountAMin",
          "type": "uint256"
        },
        {
          "internalType": "uint256",
          "name": "amountBMin",
          "type": "uint256"
        },
        {
          "internalType": "address",
          "name": "to",
          "type": "address"
        }
      ],
      "name": "removeLiquidity",
      "outputs": [
        {
          "internalType": "uint256",
          "name": "amountA",
          "type": "uint256"
        },
        {
          "internalType": "uint256",
          "name": "amountB",
          "type": "uint256"
        }
      ],
      "stateMutability": "nonpayable",
      "type": "function"
    },
    {
      "inputs": [
        {
          "internalType": "uint256",
          "name": "amountIn",
          "type": "uint256"
        },
        {
          "internalType": "uint256",
          "name": "amountOutMin",
          "type": "uint256"
        },
        {
          "internalType": "address[]",
          "name": "path",
          "type": "address[]"
        },
        {
          "internalType": "address",
          "name": "to",
          "type": "address"
        }
      ],
      "name": "swapExactTokensForTokens",
      "outputs": [
        {
          "internalType": "uint256[]",
          "name": "amounts",
          "type": "uint256[]"
        }
      ],
      "stateMutability": "nonpayable",
      "type": "function"
    },
    {
      "inputs": [
        {
          "internalType": "uint256",
          "name": "amountOut",
          "type": "uint256"
        },
        {
          "internalType": "uint256",
          "name": "amountInMax",
          "type": "uint256"
        },
        {
          "internalType": "address[]",
          "name": "path",
          "type": "address[]"
        },
        {
          "internalType": "address",
          "name": "to",
          "type": "address"
        }
      ],
      "name": "swapTokensForExactTokens",
      "outputs": [
        {
          "internalType": "uint256[]",
          "name": "amounts",
          "type": "uint256[]"
        }
      ],
      "stateMutability": "nonpayable",
      "type": "function"
    }
  ],
  "bytecode": {
    "object": "0x608060405234801561001057600080fd5b5060405161328e38038061328e83398101604081905261002f91610054565b600080546001600160a01b0319166001600160a01b0392909216919091179055610084565b60006020828403121561006657600080fd5b81516001600160a01b038116811461007d57600080fd5b9392505050565b6131fb806100936000396000f3fe60806040523480156200001157600080fd5b5060043610620000525760003560e01c806342712a671462000057578063472b43f31462000086578063c0e3ee6b146200009d578063ca3d653914620000ca575b600080fd5b6200006e6200006836600462000d9c565b620000fd565b6040516200007d919062000e41565b60405180910390f35b6200006e6200009736600462000d9c565b620002f5565b620000b4620000ae36600462000e87565b620003db565b604080519283526020830191909152016200007d565b620000e1620000db36600462000ef5565b6200053a565b604080519384526020840192909252908201526060016200007d565b600054604051630c90945960e11b815260609173__$fc36eacdce3de5bf3a5e98ee3504a4e736$__9163192128b2916200014c916001600160a01b03909116908a908990899060040162000f6e565b600060405180830381865af41580156200016a573d6000803e3d6000fd5b505050506040513d6000823e601f3d908101601f1916820160405262000194919081019062000feb565b9050848160018351620001a89190620010cb565b81518110620001bb57620001bb620010e7565b60200260200101511115620001e35760405163e1b0da4f60e01b815260040160405180910390fd5b620002ab84846000818110620001fd57620001fd620010e7565b9050602002016020810190620002149190620010fd565b60008054339162000287916001600160a01b03169089908990816200023d576200023d620010e7565b9050602002016020810190620002549190620010fd565b898960018181106200026a576200026a620010e7565b9050602002016020810190620002819190620010fd565b62000714565b846000815181106200029d576200029d620010e7565b602002602001015162000800565b620002ec8185858080602002602001604051908101604052809392919081815260200183836020028082843760009201919091525087925062000901915050565b95945050505050565b600054604051635dbdce3b60e11b815260609173__$fc36eacdce3de5bf3a5e98ee3504a4e736$__9163bb7b9c769162000344916001600160a01b03909116908a908990899060040162000f6e565b600060405180830381865af415801562000362573d6000803e3d6000fd5b505050506040513d6000823e601f3d908101601f191682016040526200038c919081019062000feb565b9050848160018351620003a09190620010cb565b81518110620003b357620003b3620010e7565b60200260200101511015620001e3576040516342301c2360e01b815260040160405180910390fd5b6000805481908190620003f9906001600160a01b03168a8a62000714565b6040516323b872dd60e01b81523360048201526001600160a01b03821660248201819052604482018a90529192506323b872dd906064016020604051808303816000875af115801562000450573d6000803e3d6000fd5b505050506040513d601f19601f8201168201806040525081019062000476919062001124565b5060405163226bf2d160e21b81526001600160a01b0385811660048301528216906389afcb449060240160408051808303816000875af1158015620004bf573d6000803e3d6000fd5b505050506040513d601f19601f82011682018060405250810190620004e5919062001148565b9093509150858310156200050c57604051638dc525d160e01b815260040160405180910390fd5b848310156200052e5760405163ef71d09160e01b815260040160405180910390fd5b50965096945050505050565b600080546040516334a2a5c360e11b81526001600160a01b038a811660048301528981166024830152839283928392909116906369454b8690604401602060405180830381865afa15801562000594573d6000803e3d6000fd5b505050506040513d601f19601f82011682018060405250810190620005ba91906200116d565b6001600160a01b03160362000646576000546040516364e329cb60e11b81526001600160a01b038c811660048301528b811660248301529091169063c9c65396906044016020604051808303816000875af11580156200061e573d6000803e3d6000fd5b505050506040513d601f19601f820116820180604052508101906200064491906200116d565b505b620006568a8a8a8a8a8a62000af2565b600080549295509093509062000677906001600160a01b03168c8c62000714565b9050620006878b33838762000800565b620006958a33838662000800565b6040516335313c2160e11b81526001600160a01b038681166004830152821690636a627842906024016020604051808303816000875af1158015620006de573d6000803e3d6000fd5b505050506040513d601f19601f820116820180604052508101906200070491906200118d565b9150509750975097945050505050565b600080600062000725858562000d42565b6040516bffffffffffffffffffffffff19606084811b8216602084015283901b1660348201529193509150869060480160405160208183030381529060405280519060200120604051806020016200077d9062000d75565b6020820181038252601f19601f8201166040525080519060200120604051602001620007de939291906001600160f81b0319815260609390931b6bffffffffffffffffffffffff191660018401526015830191909152603582015260550190565b60408051601f1981840301815291905280516020909101209695505050505050565b6040516001600160a01b038481166024830152838116604483015260648201839052600091829187169060840160408051601f198184030181529181526020820180516001600160e01b03166323b872dd60e01b17905251620008649190620011a7565b6000604051808303816000865af19150503d8060008114620008a3576040519150601f19603f3d011682016040523d82523d6000602084013e620008a8565b606091505b5091509150811580620008da5750805115801590620008da575080806020019051810190620008d8919062001124565b155b15620008f95760405163fb7f507960e01b815260040160405180910390fd5b505050505050565b60005b60018351620009149190620010cb565b81101562000aec57600080848381518110620009345762000934620010e7565b6020026020010151858460016200094c9190620011d8565b815181106200095f576200095f620010e7565b602002602001015191509150600062000979838362000d42565b5090506000876200098c866001620011d8565b815181106200099f576200099f620010e7565b60200260200101519050600080836001600160a01b0316866001600160a01b031614620009cf57826000620009d3565b6000835b91509150600060028a51620009e99190620010cb565b8810620009f7578862000a38565b60005462000a38906001600160a01b0316878c62000a178c6002620011d8565b8151811062000a2a5762000a2a620010e7565b602002602001015162000714565b60005490915062000a54906001600160a01b0316888862000714565b60405163022c0d9f60e01b815260048101859052602481018490526001600160a01b0383811660448301526080606483015260006084830152919091169063022c0d9f9060a401600060405180830381600087803b15801562000ab657600080fd5b505af115801562000acb573d6000803e3d6000fd5b5050505050505050505050808062000ae390620011ee565b91505062000904565b50505050565b60008054604051633274946160e01b81526001600160a01b0391821660048201528882166024820152908716604482015281908190819073__$fc36eacdce3de5bf3a5e98ee3504a4e736$__906332749461906064016040805180830381865af415801562000b65573d6000803e3d6000fd5b505050506040513d601f19601f8201168201806040525081019062000b8b919062001148565b9150915081600014801562000b9e575080155b1562000bb05787935086925062000d35565b604051632b58577b60e21b815260048101899052602481018390526044810182905260009073__$fc36eacdce3de5bf3a5e98ee3504a4e736$__9063ad615dec90606401602060405180830381865af415801562000c12573d6000803e3d6000fd5b505050506040513d601f19601f8201168201806040525081019062000c3891906200118d565b905087811162000c6f5785811162000c635760405163ef71d09160e01b815260040160405180910390fd5b88945092508262000d33565b604051632b58577b60e21b815260048101899052602481018390526044810184905260009073__$fc36eacdce3de5bf3a5e98ee3504a4e736$__9063ad615dec90606401602060405180830381865af415801562000cd1573d6000803e3d6000fd5b505050506040513d601f19601f8201168201806040525081019062000cf791906200118d565b90508981111562000d0c5762000d0c6200120a565b87811162000d2d57604051638dc525d160e01b815260040160405180910390fd5b94508793505b505b5050965096945050505050565b600080826001600160a01b0316846001600160a01b03161062000d6757828462000d6a565b83835b915091509250929050565b611fa5806200122183390190565b6001600160a01b038116811462000d9957600080fd5b50565b60008060008060006080868803121562000db557600080fd5b8535945060208601359350604086013567ffffffffffffffff8082111562000ddc57600080fd5b818801915088601f83011262000df157600080fd5b81358181111562000e0157600080fd5b8960208260051b850101111562000e1757600080fd5b602083019550809450505050606086013562000e338162000d83565b809150509295509295909350565b6020808252825182820181905260009190848201906040850190845b8181101562000e7b5783518352928401929184019160010162000e5d565b50909695505050505050565b60008060008060008060c0878903121562000ea157600080fd5b863562000eae8162000d83565b9550602087013562000ec08162000d83565b945060408701359350606087013592506080870135915060a087013562000ee78162000d83565b809150509295509295509295565b600080600080600080600060e0888a03121562000f1157600080fd5b873562000f1e8162000d83565b9650602088013562000f308162000d83565b955060408801359450606088013593506080880135925060a0880135915060c088013562000f5e8162000d83565b8091505092959891949750929550565b6001600160a01b03858116825260208083018690526060604084018190528301849052600091859160808501845b8781101562000fc757843562000fb28162000d83565b84168252938201939082019060010162000f9c565b509998505050505050505050565b634e487b7160e01b600052604160045260246000fd5b6000602080838503121562000fff57600080fd5b825167ffffffffffffffff808211156200101857600080fd5b818501915085601f8301126200102d57600080fd5b81518181111562001042576200104262000fd5565b8060051b604051601f19603f830116810181811085821117156200106a576200106a62000fd5565b6040529182528482019250838101850191888311156200108957600080fd5b938501935b82851015620010a9578451845293850193928501926200108e565b98975050505050505050565b634e487b7160e01b600052601160045260246000fd5b81810381811115620010e157620010e1620010b5565b92915050565b634e487b7160e01b600052603260045260246000fd5b6000602082840312156200111057600080fd5b81356200111d8162000d83565b9392505050565b6000602082840312156200113757600080fd5b815180151581146200111d57600080fd5b600080604083850312156200115c57600080fd5b505080516020909101519092909150565b6000602082840312156200118057600080fd5b81516200111d8162000d83565b600060208284031215620011a057600080fd5b5051919050565b6000825160005b81811015620011ca5760208186018101518583015201620011ae565b506000920191825250919050565b80820180821115620010e157620010e1620010b5565b600060018201620012035762001203620010b5565b5060010190565b634e487b7160e01b600052600160045260246000fdfe60e06040523480156200001157600080fd5b506040518060400160405280600e81526020016d2ab734b9bbb0b82b19102830b4b960911b815250604051806040016040528060058152602001642aa724ab1960d91b815250601282600090816200006a9190620001dd565b506001620000798382620001dd565b5060ff81166080524660a0526200008f6200009c565b60c0525062000327915050565b60007f8b73c3c69bb8fe3d512ecc4cf759cc79239f7b179b0ffacaa9a75d522b39400f6000604051620000d09190620002a9565b6040805191829003822060208301939093528101919091527fc89efdaa54c0f20c7adf612882df0950f5a951637e0307cdcb4c672f298b8bc660608201524660808201523060a082015260c00160405160208183030381529060405280519060200120905090565b634e487b7160e01b600052604160045260246000fd5b600181811c908216806200016357607f821691505b6020821081036200018457634e487b7160e01b600052602260045260246000fd5b50919050565b601f821115620001d857600081815260208120601f850160051c81016020861015620001b35750805b601f850160051c820191505b81811015620001d457828155600101620001bf565b5050505b505050565b81516001600160401b03811115620001f957620001f962000138565b62000211816200020a84546200014e565b846200018a565b602080601f831160018114620002495760008415620002305750858301515b600019600386901b1c1916600185901b178555620001d4565b600085815260208120601f198616915b828110156200027a5788860151825594840194600190910190840162000259565b5085821015620002995787850151600019600388901b60f8161c191681555b5050505050600190811b01905550565b6000808354620002b9816200014e565b60018281168015620002d45760018114620002ea576200031b565b60ff19841687528215158302870194506200031b565b8760005260208060002060005b85811015620003125781548a820152908401908201620002f7565b50505082870194505b50929695505050505050565b60805160a05160c051611c4e6200035760003960006109a8015260006109730152600061022b0152611c4e6000f3fe608060405234801561001057600080fd5b50600436106101425760003560e01c80635a3d5493116100b857806395d89b411161007c57806395d89b4114610307578063a9059cbb1461030f578063d21220a714610322578063d505accf14610335578063dd62ed3e14610348578063fff6cae91461037357600080fd5b80635a3d5493146102835780636a6278421461028c57806370a082311461029f5780637ecebe00146102bf57806389afcb44146102df57600080fd5b806318160ddd1161010a57806318160ddd146101fc57806323b872dd14610213578063313ce567146102265780633644e5151461025f578063485cc955146102675780635909c0d51461027a57600080fd5b8063022c0d9f1461014757806306fdde031461015c5780630902f1ac1461017a578063095ea7b3146101ae5780630dfe1681146101d1575b600080fd5b61015a61015536600461179b565b61037b565b005b61016461076a565b6040516101719190611853565b60405180910390f35b6101826107f8565b604080516001600160701b03948516815293909216602084015263ffffffff1690820152606001610171565b6101c16101bc366004611886565b610822565b6040519015158152602001610171565b6006546101e4906001600160a01b031681565b6040516001600160a01b039091168152602001610171565b61020560025481565b604051908152602001610171565b6101c16102213660046118b0565b61088f565b61024d7f000000000000000000000000000000000000000000000000000000000000000081565b60405160ff9091168152602001610171565b61020561096f565b61015a6102753660046118ec565b6109ca565b61020560095481565b610205600a5481565b61020561029a36600461191f565b610a38565b6102056102ad36600461191f565b60036020526000908152604090205481565b6102056102cd36600461191f565b60056020526000908152604090205481565b6102f26102ed36600461191f565b610c73565b60408051928352602083019190915201610171565b610164610f52565b6101c161031d366004611886565b610f5f565b6007546101e4906001600160a01b031681565b61015a61034336600461193a565b610fc5565b6102056103563660046118ec565b600460209081526000928352604080842090915290825290205481565b61015a61120e565b600b5460ff161561038b57600080fd5b600b805460ff19166001179055841580156103a4575083155b156103c2576040516342301c2360e01b815260040160405180910390fd5b6000806103cd6107f8565b5091509150816001600160701b03168711806103f15750806001600160701b031686115b1561040f5760405163bb55fd2760e01b815260040160405180910390fd5b861561042c5760065461042c906001600160a01b0316868961130b565b851561044957600754610449906001600160a01b0316868861130b565b82156104b6576040516304347a1760e21b81526001600160a01b038616906310d1e85c906104839033908b908b908a908a906004016119ad565b600060405180830381600087803b15801561049d57600080fd5b505af11580156104b1573d6000803e3d6000fd5b505050505b6006546040516370a0823160e01b81523060048201526000916001600160a01b0316906370a08231906024016020604051808303816000875af1158015610501573d6000803e3d6000fd5b505050506040513d601f19601f8201168201806040525081019061052591906119f9565b6007546040516370a0823160e01b81523060048201529192506000916001600160a01b03909116906370a08231906024016020604051808303816000875af1158015610575573d6000803e3d6000fd5b505050506040513d601f19601f8201168201806040525081019061059991906119f9565b6008549091506000906105b6908b906001600160701b0316611a28565b83116105c35760006105e4565b6008546105da908b906001600160701b0316611a28565b6105e49084611a28565b600854909150600090610608908b90600160701b90046001600160701b0316611a28565b831161061557600061063d565b600854610633908b90600160701b90046001600160701b0316611a28565b61063d9084611a28565b90508115801561064b575080155b156106695760405163098fb56160e01b815260040160405180910390fd5b6000610676836003611a3b565b610682866103e8611a3b565b61068c9190611a28565b9050600061069b836003611a3b565b6106a7866103e8611a3b565b6106b19190611a28565b90506106c96001600160701b03808916908a16611a3b565b6106d690620f4240611a3b565b6106e08284611a3b565b10156106ff57604051632f62f0d960e21b815260040160405180910390fd5b61070b86868a8a6113fa565b604080518e8152602081018e90526001600160a01b038d169133917f2a9237ff5aa599ef4c5ee4b1142b53429d5755e2685fe6288b2e3320202115f5910160405180910390a35050600b805460ff191690555050505050505050505050565b6000805461077790611a52565b80601f01602080910402602001604051908101604052809291908181526020018280546107a390611a52565b80156107f05780601f106107c5576101008083540402835291602001916107f0565b820191906000526020600020905b8154815290600101906020018083116107d357829003601f168201915b505050505081565b6008546001600160701b0380821692600160701b830490911691600160e01b900463ffffffff1690565b3360008181526004602090815260408083206001600160a01b038716808552925280832085905551919290917f8c5be1e5ebec7d5bd14f71427d1e84f3dd0314c0f7b2291e5b200ac8c7c3b9259061087d9086815260200190565b60405180910390a35060015b92915050565b6001600160a01b038316600090815260046020908152604080832033845290915281205460001981146108eb576108c68382611a28565b6001600160a01b03861660009081526004602090815260408083203384529091529020555b6001600160a01b03851660009081526003602052604081208054859290610913908490611a28565b90915550506001600160a01b0380851660008181526003602052604090819020805487019055519091871690600080516020611bf98339815191529061095c9087815260200190565b60405180910390a3506001949350505050565b60007f000000000000000000000000000000000000000000000000000000000000000046146109a5576109a0611578565b905090565b507f000000000000000000000000000000000000000000000000000000000000000090565b6006546001600160a01b03161515806109ed57506007546001600160a01b031615155b15610a0a5760405162dc149f60e41b815260040160405180910390fd5b600680546001600160a01b039384166001600160a01b03199182161790915560078054929093169116179055565b6000806000610a456107f8565b506006546040516370a0823160e01b81523060048201529294509092506000916001600160a01b03909116906370a08231906024016020604051808303816000875af1158015610a99573d6000803e3d6000fd5b505050506040513d601f19601f82011682018060405250810190610abd91906119f9565b6007546040516370a0823160e01b81523060048201529192506000916001600160a01b03909116906370a08231906024016020604051808303816000875af1158015610b0d573d6000803e3d6000fd5b505050506040513d601f19601f82011682018060405250810190610b3191906119f9565b90506000610b486001600160701b03861684611a28565b90506000610b5f6001600160701b03861684611a28565b9050600254600003610b9e576103e8610b80610b7b8385611a3b565b611612565b610b8a9190611a28565b9650610b9960006103e8611682565b610bed565b610bea866001600160701b031660025484610bb99190611a3b565b610bc39190611a9c565b866001600160701b031660025484610bdb9190611a3b565b610be59190611a9c565b6116dc565b96505b60008711610c0e57604051633489be7560e21b815260040160405180910390fd5b610c188888611682565b610c24848488886113fa565b60408051838152602081018390526001600160a01b038a16917f4c209b5fc8ad50758f13e2e1088ba56a560dff690a1c6fef26394f4c03821c4f910160405180910390a2505050505050919050565b6006546040516370a0823160e01b8152306004820152600091829182916001600160a01b0316906370a08231906024016020604051808303816000875af1158015610cc2573d6000803e3d6000fd5b505050506040513d601f19601f82011682018060405250810190610ce691906119f9565b6007546040516370a0823160e01b81523060048201529192506000916001600160a01b03909116906370a08231906024016020604051808303816000875af1158015610d36573d6000803e3d6000fd5b505050506040513d601f19601f82011682018060405250810190610d5a91906119f9565b3060009081526003602052604090205460025491925090610d7b8483611a3b565b610d859190611a9c565b600254909550610d958383611a3b565b610d9f9190611a9c565b9350841580610dac575083155b15610dca5760405163749383ad60e01b815260040160405180910390fd5b610dd430826116f4565b600654610deb906001600160a01b0316878761130b565b600754610e02906001600160a01b0316878661130b565b6006546040516370a0823160e01b81523060048201526001600160a01b03909116906370a08231906024016020604051808303816000875af1158015610e4c573d6000803e3d6000fd5b505050506040513d601f19601f82011682018060405250810190610e7091906119f9565b6007546040516370a0823160e01b81523060048201529194506001600160a01b0316906370a08231906024016020604051808303816000875af1158015610ebb573d6000803e3d6000fd5b505050506040513d601f19601f82011682018060405250810190610edf91906119f9565b9150600080610eec6107f8565b5091509150610efd858584846113fa565b60408051888152602081018890526001600160a01b038a1681830152905133917fdccd412f0b1252819cb1fd330b93224ca42612892bb3f4f789976e6d81936496919081900360600190a25050505050915091565b6001805461077790611a52565b33600090815260036020526040812080548391908390610f80908490611a28565b90915550506001600160a01b03831660008181526003602052604090819020805485019055513390600080516020611bf98339815191529061087d9086815260200190565b4284101561101a5760405162461bcd60e51b815260206004820152601760248201527f5045524d49545f444541444c494e455f4558504952454400000000000000000060448201526064015b60405180910390fd5b6000600161102661096f565b6001600160a01b038a811660008181526005602090815260409182902080546001810190915582517f6e71edae12b1b97f4d1f60370fef10105fa2faae0126114a169c64845d6126c98184015280840194909452938d166060840152608083018c905260a083019390935260c08083018b90528151808403909101815260e08301909152805192019190912061190160f01b6101008301526101028201929092526101228101919091526101420160408051601f198184030181528282528051602091820120600084529083018083525260ff871690820152606081018590526080810184905260a0016020604051602081039080840390855afa158015611132573d6000803e3d6000fd5b5050604051601f1901519150506001600160a01b038116158015906111685750876001600160a01b0316816001600160a01b0316145b6111a55760405162461bcd60e51b815260206004820152600e60248201526d24a72b20a624a22fa9a4a3a722a960911b6044820152606401611011565b6001600160a01b0390811660009081526004602090815260408083208a8516808552908352928190208990555188815291928a16917f8c5be1e5ebec7d5bd14f71427d1e84f3dd0314c0f7b2291e5b200ac8c7c3b925910160405180910390a350505050505050565b6000806112196107f8565b506006546040516370a0823160e01b8152306004820152929450909250611307916001600160a01b03909116906370a08231906024016020604051808303816000875af115801561126e573d6000803e3d6000fd5b505050506040513d601f19601f8201168201806040525081019061129291906119f9565b6007546040516370a0823160e01b81523060048201526001600160a01b03909116906370a08231906024016020604051808303816000875af11580156112dc573d6000803e3d6000fd5b505050506040513d601f19601f8201168201806040525081019061130091906119f9565b84846113fa565b5050565b6040516001600160a01b03838116602483015260448201839052600091829186169060640160408051601f198184030181529181526020820180516001600160e01b031663a9059cbb60e01b179052516113659190611ab0565b6000604051808303816000865af19150503d80600081146113a2576040519150601f19603f3d011682016040523d82523d6000602084013e6113a7565b606091505b50915091508115806113d557508051158015906113d55750808060200190518101906113d39190611acc565b155b156113f3576040516312171d8360e31b815260040160405180910390fd5b5050505050565b6001600160701b0384118061141557506001600160701b0383115b15611433576040516389560ca160e01b815260040160405180910390fd5b60085463ffffffff600160e01b909104811642039081161580159061146157506000836001600160701b0316115b801561147657506000826001600160701b0316115b156114e1578063ffffffff1661149e8461148f85611756565b6001600160e01b03169061176f565b600980546001600160e01b03929092169290920201905563ffffffff81166114c98361148f86611756565b600a80546001600160e01b0392909216929092020190555b506008805463ffffffff4216600160e01b026001600160e01b036001600160701b03878116600160701b9081026001600160e01b03199095168a83161794909417918216831794859055604080519382169282169290921783529290930490911660208201527fcf2aa50876cdfbb541206f89af0ee78d44a2abf8d328e37fa4917f982149848a910160405180910390a150505050565b60007f8b73c3c69bb8fe3d512ecc4cf759cc79239f7b179b0ffacaa9a75d522b39400f60006040516115aa9190611aee565b6040805191829003822060208301939093528101919091527fc89efdaa54c0f20c7adf612882df0950f5a951637e0307cdcb4c672f298b8bc660608201524660808201523060a082015260c00160405160208183030381529060405280519060200120905090565b60006003821115611673575080600061162c600283611a9c565b611637906001611b8d565b90505b8181101561166d579050806002816116528186611a9c565b61165c9190611b8d565b6116669190611a9c565b905061163a565b50919050565b811561167d575060015b919050565b80600260008282546116949190611b8d565b90915550506001600160a01b038216600081815260036020908152604080832080548601905551848152600080516020611bf983398151915291015b60405180910390a35050565b60008183106116eb57816116ed565b825b9392505050565b6001600160a01b0382166000908152600360205260408120805483929061171c908490611a28565b90915550506002805482900390556040518181526000906001600160a01b03841690600080516020611bf9833981519152906020016116d0565b6000610889600160701b6001600160701b038416611ba0565b60006116ed6001600160701b03831684611bd2565b80356001600160a01b038116811461167d57600080fd5b6000806000806000608086880312156117b357600080fd5b85359450602086013593506117ca60408701611784565b9250606086013567ffffffffffffffff808211156117e757600080fd5b818801915088601f8301126117fb57600080fd5b81358181111561180a57600080fd5b89602082850101111561181c57600080fd5b9699959850939650602001949392505050565b60005b8381101561184a578181015183820152602001611832565b50506000910152565b602081526000825180602084015261187281604085016020870161182f565b601f01601f19169190910160400192915050565b6000806040838503121561189957600080fd5b6118a283611784565b946020939093013593505050565b6000806000606084860312156118c557600080fd5b6118ce84611784565b92506118dc60208501611784565b9150604084013590509250925092565b600080604083850312156118ff57600080fd5b61190883611784565b915061191660208401611784565b90509250929050565b60006020828403121561193157600080fd5b6116ed82611784565b600080600080600080600060e0888a03121561195557600080fd5b61195e88611784565b965061196c60208901611784565b95506040880135945060608801359350608088013560ff8116811461199057600080fd5b9699959850939692959460a0840135945060c09093013592915050565b60018060a01b038616815284602082015283604082015260806060820152816080820152818360a0830137600081830160a090810191909152601f909201601f19160101949350505050565b600060208284031215611a0b57600080fd5b5051919050565b634e487b7160e01b600052601160045260246000fd5b8181038181111561088957610889611a12565b808202811582820484141761088957610889611a12565b600181811c90821680611a6657607f821691505b60208210810361166d57634e487b7160e01b600052602260045260246000fd5b634e487b7160e01b600052601260045260246000fd5b600082611aab57611aab611a86565b500490565b60008251611ac281846020870161182f565b9190910192915050565b600060208284031215611ade57600080fd5b815180151581146116ed57600080fd5b600080835481600182811c915080831680611b0a57607f831692505b60208084108203611b2957634e487b7160e01b86526022600452602486fd5b818015611b3d5760018114611b5257611b7f565b60ff1986168952841515850289019650611b7f565b60008a81526020902060005b86811015611b775781548b820152908501908301611b5e565b505084890196505b509498975050505050505050565b8082018082111561088957610889611a12565b6001600160e01b03828116828216818102831692918115828504821417611bc957611bc9611a12565b50505092915050565b60006001600160e01b0383811680611bec57611bec611a86565b9216919091049291505056feddf252ad1be2c89b69c2b068fc378daa952ba7f163c4a11628f55a4df523b3efa264697066735822122005b1d3c7bb0360e0c75bb61ac58617a040ba1ce23863fed3b8713e352d8d029b64736f6c63430008130033a2646970667358221220c3fad7669f07364ab251e87aea28c0c9766def6d7487c6bb799cf2c6f2c460ee64736f6c63430008130033",
    "linkReferences": {
      "src/UniswapV2Helper.sol": {
        "UniswapV2Helper": [
          {
            "start": 421,
            "length": 20
          },
          {
            "start": 925,
            "length": 20
          },
          {
            "start": 3006,
            "length": 20
          },
          {
            "start": 3178,
            "length": 20
          },
          {
            "start": 3369,
            "length": 20
          }
        ]
      }
    }
  },
  "methodIdentifiers": {
    "addLiquidity(address,address,uint256,uint256,uint256,uint256,address)": "ca3d6539",
    "removeLiquidity(address,address,uint256,uint256,uint256,address)": "c0e3ee6b",
    "swapExactTokensForTokens(uint256,uint256,address[],address)": "472b43f3",
    "swapTokensForExactTokens(uint256,uint256,address[],address)": "42712a67"
  },
  "id": 21
}