{
  "abi": [
    {
      "inputs": [],
      "name": "InsufficientAmount",
      "type": "error"
    },
    {
      "inputs": [],
      "name": "InsufficientLiquidity",
      "type": "error"
    },
    {
      "inputs": [],
      "name": "InvalidPath",
      "type": "error"
    },
    {
      "inputs": [
        {
          "internalType": "uint256",
          "name": "amountOut",
          "type": "uint256"
        },
        {
          "internalType": "uint256",
          "name": "reserveIn",
          "type": "uint256"
        },
        {
          "internalType": "uint256",
          "name": "reserveOut",
          "type": "uint256"
        }
      ],
      "name": "getAmountIn",
      "outputs": [
        {
          "internalType": "uint256",
          "name": "",
          "type": "uint256"
        }
      ],
      "stateMutability": "pure",
      "type": "function"
    },
    {
      "inputs": [
        {
          "internalType": "uint256",
          "name": "amountIn",
          "type": "uint256"
        },
        {
          "internalType": "uint256",
          "name": "reserveIn",
          "type": "uint256"
        },
        {
          "internalType": "uint256",
          "name": "reserveOut",
          "type": "uint256"
        }
      ],
      "name": "getAmountOut",
      "outputs": [
        {
          "internalType": "uint256",
          "name": "",
          "type": "uint256"
        }
      ],
      "stateMutability": "pure",
      "type": "function"
    },
    {
      "inputs": [
        {
          "internalType": "uint256",
          "name": "amountIn",
          "type": "uint256"
        },
        {
          "internalType": "uint256",
          "name": "reserveIn",
          "type": "uint256"
        },
        {
          "internalType": "uint256",
          "name": "reserveOut",
          "type": "uint256"
        }
      ],
      "name": "quote",
      "outputs": [
        {
          "internalType": "uint256",
          "name": "amountOut",
          "type": "uint256"
        }
      ],
      "stateMutability": "pure",
      "type": "function"
    }
  ],
  "bytecode": {
    "object": "0x612b2161003a600b82828239805160001a60731461002d57634e487b7160e01b600052600060045260246000fd5b30600052607381538281f3fe7300000000000000000000000000000000000000003014608060405260043610620000735760003560e01c8063054d50d41462000078578063192128b214620000a25780633274946114620000d657806385f8c2591462000111578063ad615dec1462000128578063bb7b9c76146200013f575b600080fd5b6200008f6200008936600462000826565b62000164565b6040519081526020015b60405180910390f35b818015620000af57600080fd5b50620000c7620000c136600462000886565b6200020b565b60405162000099919062000977565b818015620000e357600080fd5b50620000fb620000f5366004620009bd565b62000399565b6040805192835260208301919091520162000099565b6200008f6200012236600462000826565b62000471565b6200008f6200013936600462000826565b6200051f565b8180156200014c57600080fd5b50620000c76200015e36600462000886565b6200058f565b6000836000036200018857604051632ca2f52b60e11b815260040160405180910390fd5b82158062000194575081155b15620001b35760405163bb55fd2760e01b815260040160405180910390fd5b6000620001c3856103e562000a1d565b90506000620001d3848362000a1d565b9050600082620001e6876103e862000a1d565b620001f2919062000a3d565b905062000200818362000a53565b979650505050505050565b606060028251101562000231576040516320db826760e01b815260040160405180910390fd5b6000825167ffffffffffffffff81111562000250576200025062000870565b6040519080825280602002602001820160405280156200027a578160200160208202803683370190505b5090508381600183516200028f919062000a76565b81518110620002a257620002a262000a8c565b602002602001018181525050600060018451620002c0919062000a76565b90505b801562000390576000806200031e8887620002e060018762000a76565b81518110620002f357620002f362000a8c565b602002602001015188868151811062000310576200031062000a8c565b602002602001015162000399565b915091506200034b8484815181106200033b576200033b62000a8c565b6020026020010151838362000471565b846200035960018662000a76565b815181106200036c576200036c62000a8c565b60200260200101818152505050508080620003879062000aa2565b915050620002c3565b50949350505050565b600080600080620003ab8686620006f9565b91509150600080620003bf8985856200072c565b6001600160a01b0316630902f1ac6040518163ffffffff1660e01b81526004016060604051808303816000875af1158015620003ff573d6000803e3d6000fd5b505050506040513d601f19601f8201168201806040525081019062000425919062000ad4565b506001600160701b031691506001600160701b03169150836001600160a01b0316886001600160a01b0316146200045e57808262000461565b81815b909a909950975050505050505050565b6000836000036200049557604051632ca2f52b60e11b815260040160405180910390fd5b821580620004a1575081155b15620004c05760405163bb55fd2760e01b815260040160405180910390fd5b6000620004ce858562000a1d565b620004dc906103e862000a1d565b90506000620004ec868562000a76565b620004fa906103e562000a1d565b905062000508818362000a53565b6200051590600162000a3d565b9695505050505050565b6000836000036200054357604051632ca2f52b60e11b815260040160405180910390fd5b8215806200054f575081155b156200056e5760405163bb55fd2760e01b815260040160405180910390fd5b826200057b838662000a1d565b62000587919062000a53565b949350505050565b6060600282511015620005b5576040516320db826760e01b815260040160405180910390fd5b6000825167ffffffffffffffff811115620005d457620005d462000870565b604051908082528060200260200182016040528015620005fe578160200160208202803683370190505b509050838160008151811062000618576200061862000a8c565b60200260200101818152505060005b6001845162000637919062000a76565b811015620003905760008062000687888785815181106200065c576200065c62000a8c565b60200260200101518886600162000674919062000a3d565b8151811062000310576200031062000a8c565b91509150620006b4848481518110620006a457620006a462000a8c565b6020026020010151838362000164565b84620006c285600162000a3d565b81518110620006d557620006d562000a8c565b60200260200101818152505050508080620006f09062000b2a565b91505062000627565b600080826001600160a01b0316846001600160a01b0316106200071e57828462000721565b83835b915091509250929050565b60008060006200073d8585620006f9565b6040516bffffffffffffffffffffffff19606084811b8216602084015283901b166034820152919350915086906048016040516020818303038152906040528051906020012060405180602001620007959062000818565b6020820181038252601f19601f8201166040525080519060200120604051602001620007f6939291906001600160f81b0319815260609390931b6bffffffffffffffffffffffff191660018401526015830191909152603582015260550190565b60408051601f1981840301815291905280516020909101209695505050505050565b611fa58062000b4783390190565b6000806000606084860312156200083c57600080fd5b505081359360208301359350604090920135919050565b80356001600160a01b03811681146200086b57600080fd5b919050565b634e487b7160e01b600052604160045260246000fd5b6000806000606084860312156200089c57600080fd5b620008a78462000853565b92506020808501359250604085013567ffffffffffffffff80821115620008cd57600080fd5b818701915087601f830112620008e257600080fd5b813581811115620008f757620008f762000870565b8060051b604051601f19603f830116810181811085821117156200091f576200091f62000870565b60405291825284820192508381018501918a8311156200093e57600080fd5b938501935b828510156200096757620009578562000853565b8452938501939285019262000943565b8096505050505050509250925092565b6020808252825182820181905260009190848201906040850190845b81811015620009b15783518352928401929184019160010162000993565b50909695505050505050565b600080600060608486031215620009d357600080fd5b620009de8462000853565b9250620009ee6020850162000853565b9150620009fe6040850162000853565b90509250925092565b634e487b7160e01b600052601160045260246000fd5b808202811582820484141762000a375762000a3762000a07565b92915050565b8082018082111562000a375762000a3762000a07565b60008262000a7157634e487b7160e01b600052601260045260246000fd5b500490565b8181038181111562000a375762000a3762000a07565b634e487b7160e01b600052603260045260246000fd5b60008162000ab45762000ab462000a07565b506000190190565b80516001600160701b03811681146200086b57600080fd5b60008060006060848603121562000aea57600080fd5b62000af58462000abc565b925062000b056020850162000abc565b9150604084015163ffffffff8116811462000b1f57600080fd5b809150509250925092565b60006001820162000b3f5762000b3f62000a07565b506001019056fe60e06040523480156200001157600080fd5b506040518060400160405280600e81526020016d2ab734b9bbb0b82b19102830b4b960911b815250604051806040016040528060058152602001642aa724ab1960d91b815250601282600090816200006a9190620001dd565b506001620000798382620001dd565b5060ff81166080524660a0526200008f6200009c565b60c0525062000327915050565b60007f8b73c3c69bb8fe3d512ecc4cf759cc79239f7b179b0ffacaa9a75d522b39400f6000604051620000d09190620002a9565b6040805191829003822060208301939093528101919091527fc89efdaa54c0f20c7adf612882df0950f5a951637e0307cdcb4c672f298b8bc660608201524660808201523060a082015260c00160405160208183030381529060405280519060200120905090565b634e487b7160e01b600052604160045260246000fd5b600181811c908216806200016357607f821691505b6020821081036200018457634e487b7160e01b600052602260045260246000fd5b50919050565b601f821115620001d857600081815260208120601f850160051c81016020861015620001b35750805b601f850160051c820191505b81811015620001d457828155600101620001bf565b5050505b505050565b81516001600160401b03811115620001f957620001f962000138565b62000211816200020a84546200014e565b846200018a565b602080601f831160018114620002495760008415620002305750858301515b600019600386901b1c1916600185901b178555620001d4565b600085815260208120601f198616915b828110156200027a5788860151825594840194600190910190840162000259565b5085821015620002995787850151600019600388901b60f8161c191681555b5050505050600190811b01905550565b6000808354620002b9816200014e565b60018281168015620002d45760018114620002ea576200031b565b60ff19841687528215158302870194506200031b565b8760005260208060002060005b85811015620003125781548a820152908401908201620002f7565b50505082870194505b50929695505050505050565b60805160a05160c051611c4e6200035760003960006109a8015260006109730152600061022b0152611c4e6000f3fe608060405234801561001057600080fd5b50600436106101425760003560e01c80635a3d5493116100b857806395d89b411161007c57806395d89b4114610307578063a9059cbb1461030f578063d21220a714610322578063d505accf14610335578063dd62ed3e14610348578063fff6cae91461037357600080fd5b80635a3d5493146102835780636a6278421461028c57806370a082311461029f5780637ecebe00146102bf57806389afcb44146102df57600080fd5b806318160ddd1161010a57806318160ddd146101fc57806323b872dd14610213578063313ce567146102265780633644e5151461025f578063485cc955146102675780635909c0d51461027a57600080fd5b8063022c0d9f1461014757806306fdde031461015c5780630902f1ac1461017a578063095ea7b3146101ae5780630dfe1681146101d1575b600080fd5b61015a61015536600461179b565b61037b565b005b61016461076a565b6040516101719190611853565b60405180910390f35b6101826107f8565b604080516001600160701b03948516815293909216602084015263ffffffff1690820152606001610171565b6101c16101bc366004611886565b610822565b6040519015158152602001610171565b6006546101e4906001600160a01b031681565b6040516001600160a01b039091168152602001610171565b61020560025481565b604051908152602001610171565b6101c16102213660046118b0565b61088f565b61024d7f000000000000000000000000000000000000000000000000000000000000000081565b60405160ff9091168152602001610171565b61020561096f565b61015a6102753660046118ec565b6109ca565b61020560095481565b610205600a5481565b61020561029a36600461191f565b610a38565b6102056102ad36600461191f565b60036020526000908152604090205481565b6102056102cd36600461191f565b60056020526000908152604090205481565b6102f26102ed36600461191f565b610c73565b60408051928352602083019190915201610171565b610164610f52565b6101c161031d366004611886565b610f5f565b6007546101e4906001600160a01b031681565b61015a61034336600461193a565b610fc5565b6102056103563660046118ec565b600460209081526000928352604080842090915290825290205481565b61015a61120e565b600b5460ff161561038b57600080fd5b600b805460ff19166001179055841580156103a4575083155b156103c2576040516342301c2360e01b815260040160405180910390fd5b6000806103cd6107f8565b5091509150816001600160701b03168711806103f15750806001600160701b031686115b1561040f5760405163bb55fd2760e01b815260040160405180910390fd5b861561042c5760065461042c906001600160a01b0316868961130b565b851561044957600754610449906001600160a01b0316868861130b565b82156104b6576040516304347a1760e21b81526001600160a01b038616906310d1e85c906104839033908b908b908a908a906004016119ad565b600060405180830381600087803b15801561049d57600080fd5b505af11580156104b1573d6000803e3d6000fd5b505050505b6006546040516370a0823160e01b81523060048201526000916001600160a01b0316906370a08231906024016020604051808303816000875af1158015610501573d6000803e3d6000fd5b505050506040513d601f19601f8201168201806040525081019061052591906119f9565b6007546040516370a0823160e01b81523060048201529192506000916001600160a01b03909116906370a08231906024016020604051808303816000875af1158015610575573d6000803e3d6000fd5b505050506040513d601f19601f8201168201806040525081019061059991906119f9565b6008549091506000906105b6908b906001600160701b0316611a28565b83116105c35760006105e4565b6008546105da908b906001600160701b0316611a28565b6105e49084611a28565b600854909150600090610608908b90600160701b90046001600160701b0316611a28565b831161061557600061063d565b600854610633908b90600160701b90046001600160701b0316611a28565b61063d9084611a28565b90508115801561064b575080155b156106695760405163098fb56160e01b815260040160405180910390fd5b6000610676836003611a3b565b610682866103e8611a3b565b61068c9190611a28565b9050600061069b836003611a3b565b6106a7866103e8611a3b565b6106b19190611a28565b90506106c96001600160701b03808916908a16611a3b565b6106d690620f4240611a3b565b6106e08284611a3b565b10156106ff57604051632f62f0d960e21b815260040160405180910390fd5b61070b86868a8a6113fa565b604080518e8152602081018e90526001600160a01b038d169133917f2a9237ff5aa599ef4c5ee4b1142b53429d5755e2685fe6288b2e3320202115f5910160405180910390a35050600b805460ff191690555050505050505050505050565b6000805461077790611a52565b80601f01602080910402602001604051908101604052809291908181526020018280546107a390611a52565b80156107f05780601f106107c5576101008083540402835291602001916107f0565b820191906000526020600020905b8154815290600101906020018083116107d357829003601f168201915b505050505081565b6008546001600160701b0380821692600160701b830490911691600160e01b900463ffffffff1690565b3360008181526004602090815260408083206001600160a01b038716808552925280832085905551919290917f8c5be1e5ebec7d5bd14f71427d1e84f3dd0314c0f7b2291e5b200ac8c7c3b9259061087d9086815260200190565b60405180910390a35060015b92915050565b6001600160a01b038316600090815260046020908152604080832033845290915281205460001981146108eb576108c68382611a28565b6001600160a01b03861660009081526004602090815260408083203384529091529020555b6001600160a01b03851660009081526003602052604081208054859290610913908490611a28565b90915550506001600160a01b0380851660008181526003602052604090819020805487019055519091871690600080516020611bf98339815191529061095c9087815260200190565b60405180910390a3506001949350505050565b60007f000000000000000000000000000000000000000000000000000000000000000046146109a5576109a0611578565b905090565b507f000000000000000000000000000000000000000000000000000000000000000090565b6006546001600160a01b03161515806109ed57506007546001600160a01b031615155b15610a0a5760405162dc149f60e41b815260040160405180910390fd5b600680546001600160a01b039384166001600160a01b03199182161790915560078054929093169116179055565b6000806000610a456107f8565b506006546040516370a0823160e01b81523060048201529294509092506000916001600160a01b03909116906370a08231906024016020604051808303816000875af1158015610a99573d6000803e3d6000fd5b505050506040513d601f19601f82011682018060405250810190610abd91906119f9565b6007546040516370a0823160e01b81523060048201529192506000916001600160a01b03909116906370a08231906024016020604051808303816000875af1158015610b0d573d6000803e3d6000fd5b505050506040513d601f19601f82011682018060405250810190610b3191906119f9565b90506000610b486001600160701b03861684611a28565b90506000610b5f6001600160701b03861684611a28565b9050600254600003610b9e576103e8610b80610b7b8385611a3b565b611612565b610b8a9190611a28565b9650610b9960006103e8611682565b610bed565b610bea866001600160701b031660025484610bb99190611a3b565b610bc39190611a9c565b866001600160701b031660025484610bdb9190611a3b565b610be59190611a9c565b6116dc565b96505b60008711610c0e57604051633489be7560e21b815260040160405180910390fd5b610c188888611682565b610c24848488886113fa565b60408051838152602081018390526001600160a01b038a16917f4c209b5fc8ad50758f13e2e1088ba56a560dff690a1c6fef26394f4c03821c4f910160405180910390a2505050505050919050565b6006546040516370a0823160e01b8152306004820152600091829182916001600160a01b0316906370a08231906024016020604051808303816000875af1158015610cc2573d6000803e3d6000fd5b505050506040513d601f19601f82011682018060405250810190610ce691906119f9565b6007546040516370a0823160e01b81523060048201529192506000916001600160a01b03909116906370a08231906024016020604051808303816000875af1158015610d36573d6000803e3d6000fd5b505050506040513d601f19601f82011682018060405250810190610d5a91906119f9565b3060009081526003602052604090205460025491925090610d7b8483611a3b565b610d859190611a9c565b600254909550610d958383611a3b565b610d9f9190611a9c565b9350841580610dac575083155b15610dca5760405163749383ad60e01b815260040160405180910390fd5b610dd430826116f4565b600654610deb906001600160a01b0316878761130b565b600754610e02906001600160a01b0316878661130b565b6006546040516370a0823160e01b81523060048201526001600160a01b03909116906370a08231906024016020604051808303816000875af1158015610e4c573d6000803e3d6000fd5b505050506040513d601f19601f82011682018060405250810190610e7091906119f9565b6007546040516370a0823160e01b81523060048201529194506001600160a01b0316906370a08231906024016020604051808303816000875af1158015610ebb573d6000803e3d6000fd5b505050506040513d601f19601f82011682018060405250810190610edf91906119f9565b9150600080610eec6107f8565b5091509150610efd858584846113fa565b60408051888152602081018890526001600160a01b038a1681830152905133917fdccd412f0b1252819cb1fd330b93224ca42612892bb3f4f789976e6d81936496919081900360600190a25050505050915091565b6001805461077790611a52565b33600090815260036020526040812080548391908390610f80908490611a28565b90915550506001600160a01b03831660008181526003602052604090819020805485019055513390600080516020611bf98339815191529061087d9086815260200190565b4284101561101a5760405162461bcd60e51b815260206004820152601760248201527f5045524d49545f444541444c494e455f4558504952454400000000000000000060448201526064015b60405180910390fd5b6000600161102661096f565b6001600160a01b038a811660008181526005602090815260409182902080546001810190915582517f6e71edae12b1b97f4d1f60370fef10105fa2faae0126114a169c64845d6126c98184015280840194909452938d166060840152608083018c905260a083019390935260c08083018b90528151808403909101815260e08301909152805192019190912061190160f01b6101008301526101028201929092526101228101919091526101420160408051601f198184030181528282528051602091820120600084529083018083525260ff871690820152606081018590526080810184905260a0016020604051602081039080840390855afa158015611132573d6000803e3d6000fd5b5050604051601f1901519150506001600160a01b038116158015906111685750876001600160a01b0316816001600160a01b0316145b6111a55760405162461bcd60e51b815260206004820152600e60248201526d24a72b20a624a22fa9a4a3a722a960911b6044820152606401611011565b6001600160a01b0390811660009081526004602090815260408083208a8516808552908352928190208990555188815291928a16917f8c5be1e5ebec7d5bd14f71427d1e84f3dd0314c0f7b2291e5b200ac8c7c3b925910160405180910390a350505050505050565b6000806112196107f8565b506006546040516370a0823160e01b8152306004820152929450909250611307916001600160a01b03909116906370a08231906024016020604051808303816000875af115801561126e573d6000803e3d6000fd5b505050506040513d601f19601f8201168201806040525081019061129291906119f9565b6007546040516370a0823160e01b81523060048201526001600160a01b03909116906370a08231906024016020604051808303816000875af11580156112dc573d6000803e3d6000fd5b505050506040513d601f19601f8201168201806040525081019061130091906119f9565b84846113fa565b5050565b6040516001600160a01b03838116602483015260448201839052600091829186169060640160408051601f198184030181529181526020820180516001600160e01b031663a9059cbb60e01b179052516113659190611ab0565b6000604051808303816000865af19150503d80600081146113a2576040519150601f19603f3d011682016040523d82523d6000602084013e6113a7565b606091505b50915091508115806113d557508051158015906113d55750808060200190518101906113d39190611acc565b155b156113f3576040516312171d8360e31b815260040160405180910390fd5b5050505050565b6001600160701b0384118061141557506001600160701b0383115b15611433576040516389560ca160e01b815260040160405180910390fd5b60085463ffffffff600160e01b909104811642039081161580159061146157506000836001600160701b0316115b801561147657506000826001600160701b0316115b156114e1578063ffffffff1661149e8461148f85611756565b6001600160e01b03169061176f565b600980546001600160e01b03929092169290920201905563ffffffff81166114c98361148f86611756565b600a80546001600160e01b0392909216929092020190555b506008805463ffffffff4216600160e01b026001600160e01b036001600160701b03878116600160701b9081026001600160e01b03199095168a83161794909417918216831794859055604080519382169282169290921783529290930490911660208201527fcf2aa50876cdfbb541206f89af0ee78d44a2abf8d328e37fa4917f982149848a910160405180910390a150505050565b60007f8b73c3c69bb8fe3d512ecc4cf759cc79239f7b179b0ffacaa9a75d522b39400f60006040516115aa9190611aee565b6040805191829003822060208301939093528101919091527fc89efdaa54c0f20c7adf612882df0950f5a951637e0307cdcb4c672f298b8bc660608201524660808201523060a082015260c00160405160208183030381529060405280519060200120905090565b60006003821115611673575080600061162c600283611a9c565b611637906001611b8d565b90505b8181101561166d579050806002816116528186611a9c565b61165c9190611b8d565b6116669190611a9c565b905061163a565b50919050565b811561167d575060015b919050565b80600260008282546116949190611b8d565b90915550506001600160a01b038216600081815260036020908152604080832080548601905551848152600080516020611bf983398151915291015b60405180910390a35050565b60008183106116eb57816116ed565b825b9392505050565b6001600160a01b0382166000908152600360205260408120805483929061171c908490611a28565b90915550506002805482900390556040518181526000906001600160a01b03841690600080516020611bf9833981519152906020016116d0565b6000610889600160701b6001600160701b038416611ba0565b60006116ed6001600160701b03831684611bd2565b80356001600160a01b038116811461167d57600080fd5b6000806000806000608086880312156117b357600080fd5b85359450602086013593506117ca60408701611784565b9250606086013567ffffffffffffffff808211156117e757600080fd5b818801915088601f8301126117fb57600080fd5b81358181111561180a57600080fd5b89602082850101111561181c57600080fd5b9699959850939650602001949392505050565b60005b8381101561184a578181015183820152602001611832565b50506000910152565b602081526000825180602084015261187281604085016020870161182f565b601f01601f19169190910160400192915050565b6000806040838503121561189957600080fd5b6118a283611784565b946020939093013593505050565b6000806000606084860312156118c557600080fd5b6118ce84611784565b92506118dc60208501611784565b9150604084013590509250925092565b600080604083850312156118ff57600080fd5b61190883611784565b915061191660208401611784565b90509250929050565b60006020828403121561193157600080fd5b6116ed82611784565b600080600080600080600060e0888a03121561195557600080fd5b61195e88611784565b965061196c60208901611784565b95506040880135945060608801359350608088013560ff8116811461199057600080fd5b9699959850939692959460a0840135945060c09093013592915050565b60018060a01b038616815284602082015283604082015260806060820152816080820152818360a0830137600081830160a090810191909152601f909201601f19160101949350505050565b600060208284031215611a0b57600080fd5b5051919050565b634e487b7160e01b600052601160045260246000fd5b8181038181111561088957610889611a12565b808202811582820484141761088957610889611a12565b600181811c90821680611a6657607f821691505b60208210810361166d57634e487b7160e01b600052602260045260246000fd5b634e487b7160e01b600052601260045260246000fd5b600082611aab57611aab611a86565b500490565b60008251611ac281846020870161182f565b9190910192915050565b600060208284031215611ade57600080fd5b815180151581146116ed57600080fd5b600080835481600182811c915080831680611b0a57607f831692505b60208084108203611b2957634e487b7160e01b86526022600452602486fd5b818015611b3d5760018114611b5257611b7f565b60ff1986168952841515850289019650611b7f565b60008a81526020902060005b86811015611b775781548b820152908501908301611b5e565b505084890196505b509498975050505050505050565b8082018082111561088957610889611a12565b6001600160e01b03828116828216818102831692918115828504821417611bc957611bc9611a12565b50505092915050565b60006001600160e01b0383811680611bec57611bec611a86565b9216919091049291505056feddf252ad1be2c89b69c2b068fc378daa952ba7f163c4a11628f55a4df523b3efa264697066735822122005b1d3c7bb0360e0c75bb61ac58617a040ba1ce23863fed3b8713e352d8d029b64736f6c63430008130033a2646970667358221220cff8cf2176845aa05269f221faee49b76547bae95b774f71461a05e7a2c5474e64736f6c63430008130033",
    "linkReferences": {}
  },
  "methodIdentifiers": {
    "getAmountIn(uint256,uint256,uint256)": "85f8c259",
    "getAmountOut(uint256,uint256,uint256)": "054d50d4",
    "getAmountsIn(address,uint256,address[])": "192128b2",
    "getAmountsOut(address,uint256,address[])": "bb7b9c76",
    "getReserves(address,address,address)": "32749461",
    "quote(uint256,uint256,uint256)": "ad615dec"
  },
  "id": 19
}